:040000000C946100FB
:100004000C9400000C9400000C9400000C9400006C
:100014000C9400000C9400000C9400000C9400005C
:100024000C9400000C9400000C9400000C9400004C
:100034000C9400000C9400000C9400000C9400003C
:100044000C9400000C9400000C9400000C9400002C
:100054001027E80364000A000100001000011000EA
:1000640001000000000000000000600220202020A9
:100074002020202020202020202020200020432079
:1000840020003D0080C001002D4E414E00494E46E7
:100094000000080006006600110060027000020003
:1000A40023036E00050071028100020076028600BF
:1000B40002002503880001002C038A000000F89444
:1000C400EE27ECBBF1E0FBBFEBBFE5BF8DE0A2E0A8
:1000D400BB27ED938A95E9F780E098E0A0E6ED93DD
:1000E4000197E9F7E6E9F0E085919591009761F0D1
:1000F400A591B59105901590BF01F00105900D9261
:100104000197E1F7FB01F0CFEFE5EDBFE8E0EEBFCB
:10011400C0E6D2E00C94CE001A931AE5E8E0E8BBFE
:10012400B49913E4B59910E3B69915E4B7991BE2B1
:10013400E4E0E8BBB49911E3B59912E3B69913E38B
:10014400B7991DE2E2E0E8BBB49914E3B59915E36D
:10015400B69916E3B7991AE2E1E0E8BBB49917E35C
:10016400B59918E3B69919E3B7991FE2A6E9B0E087
:100174000E942603E12F19910895AA93E881E06C67
:10018400E7B983E08A95F1F7369A349BFECF349A27
:10019400E4B1F5B10C94B802E0E0EABBEBBBEFE0EC
:1001A400E7BBE0E0E8BBE4BBE5BBE1BBE2BBE3BF2C
:1001B400E2BFECBFEFBDEEBDEDBDECBDE7BDE6BDFE
:1001C400EBBDEABDE9BDE8BDE2BDE5BDE4BDE3BD0F
:1001D400E9BFE5BFE4BFEAB9E0E8E8B9E0ECE7B9B4
:1001E400E7EAE6B9E0E0E0BFEDB9E6BFA0E192D10D
:1001F400E0E0EA93A0E03ED1A0E0BFDFE0931F037C
:10020400F09320030E943403E0932103F09322032C
:10021400FA93EA930E94E8020E94BA020E94E8025A
:1002240068D1A1E7B2E065D10E94ED026A92A1E033
:1002340021D1EAE55E2E70DF5E2EE5E4E515D9F501
:10024400A0911803AB3229F40E94F102EA0FFB1FBC
:100254006F01A0911803AD3259F4A0911D03B09120
:100264001E03E0911B03F0911C03EA1BFB0B6F01BF
:10027400A0911803AA3229F40E94F1020E944103BA
:100284006F01A0911803AF3229F40E94F1020E9479
:1002940059036F01DA92CA920E94E8020E94BA02DC
:1002A400A6E7B2E00E94FA020E94E8020E94FA0263
:1002B4000E94ED029DCFE3E4E515D1F5ECD0E0E03A
:1002C400E0931903E0931A03E0931B03E0931C03E8
:1002D40088249924EAE0F0E08E169F0654F4A8E7F7
:1002E400B2E0A80DB91DE0E2EC93F40131964F01A0
:1002F400F1CF88249924EAE0F0E08E169F0654F4A6
:10030400A8ECB2E0A80DB91DE0E2EC93F40131963B
:100314004F01F1CFE0E0E0931D03E0931E03AA2414
:10032400BB24CC24DD24662477240E94ED0260CF14
:10033400EAE5E51531F0A0911903B0911A0310977D
:1003440009F042C0EBE2E51549F0EDE2E51531F0C4
:10035400EAE2E51519F0EFE2E515A1F4509218036D
:10036400E1E0F0E0E0931903F0931A030E94000324
:100374000E94ED020E94070311F466247724AA2444
:10038400BB2436CFF501E858FD4F5082E0911B03A2
:10039400F0911C030E940E03E0931B03F0931C03D3
:1003A400F50131965F0177D0E0E0EA93A1E062D0F5
:1003B400A8E7B2E00E94FA020E94ED020E9407033D
:1003C40011F46624772414CFEAE5E51531F0A09101
:1003D4001903B0911A03119709F025C0EBE2E51552
:1003E40049F0EDE2E51531F0EAE2E51519F0EFE246
:1003F400E51509F4FDCEF501E853FD4F5082E09177
:100404001D03F0911E030E940E03E0931D03F0935D
:100414001E03F50131965F010E9400030E94070349
:1004240011F466247724AAE0B0E00E942603452C48
:10043400DFCEFFCFAA93E5B3EF70AE2FE881E07F64
:10044400EA2BE5BB82E08A95F1F7AA9A82E08A95C5
:10045400F1F7AA9882E08A95F1F788C0AA93A88157
:10046400E9DFE881E295E883A881E4DF81E18A9508
:10047400F1F77CC0AA93E881F0E0EB5DFC4FE081EA
:10048400A981AE0FEBDFE981E0932903E881E093D2
:100494002A0322960895A2E00E941903ACE0DEDF4D
:1004A400A1E00E941903E0E0E0932A03E09329030A
:1004B4000895AA93A881AA3031F0E0912B03A0916A
:1004C4002903AE1760F0E0E0EA93A0912A03AF5F3E
:1004D400A0932A03CFDFA881AA3009F447C0E09192
:1004E4002903EF5FE0932903A89AA881B7DFA898AE
:1004F4003DC0BA93AA931A93A981BA81ED91A983B5
:10050400BA831E2FE03019F0A12FD3DFF5CF188165
:1005140023960895AA93E4B3E06FE4BBA29AA09A49
:10052400A19AAA98A898A998E881E0932B03E05887
:10053400E0932703E881E054E0932803A4E1B0E0CA
:100544000E9426030E941F030E941F030E941F0390
:10055400A0E270DF81E28A95F1F7A8E27FDFA4E0F0
:100564007DDFA5E87BDFA6E079DF95DF219608959E
:10057400BA93AA93A991B991E991F99130962AF481
:10058400E095F09531966DE26D93E89480E197E201
:100594000DD088EE93E00AD084E6992707D08AE04C
:1005A40005D06E2F10D066276C9308956627E81740
:1005B400F90720F06395E81BF90BC9F7662311F4DA
:1005C40016F008956894605D6D930895A0912303D7
:1005D400B09124030895A9E1B0E00C942603E091BE
:1005E4001D03F0911E03A0911B03B0911C030895F9
:1005F4000E947B02F30131963F010895A52D0E94CC
:100604005B02F30131963F010895D301E0E1F0E08C
:100614000E945E0330970895AAE0B0E00E9441036F
:10062400DF01E52DF0E0F097EA0FFB1F08950E942B
:100634003002A3E0B0E00C942603A0E30E941C0265
:1006440081E28A95F1F70895109639F08AEF90E0E7
:100654000197F1F7A8951197C9F70895F195E195D8
:10066400F0400895F695E795F695E7950895FA9F75
:10067400F02DEB9FF00DEA9FE02DF10D08952AD0A7
:10068400F6DF0EF4EBDF08950024112490E1AA0FA5
:10069400BB1F001C111C0E1A1F0A18F40E0E1F1E7D
:1006A40001C0A1609A9599F7FD01D001089512D077
:1006B400EBDF0EF4D3DF0895E894B7FF04C0A095F0
:1006C400B09511966894F7FDC9DFDEDFFD010EF4E5
:1006D400C5DF0895E894F7FF02C0C0DF6894B7FF50
:1006E40006C0A095B095119600F8039400FA0895F9
:00000001FF
